{
  "contractName": "Permission",
  "abi": [
    {
      "inputs": [],
      "payable": false,
      "stateMutability": "nonpayable",
      "type": "constructor"
    },
    {
      "anonymous": false,
      "inputs": [
        {
          "indexed": false,
          "name": "dataid",
          "type": "uint256"
        },
        {
          "indexed": false,
          "name": "hashid",
          "type": "uint256"
        }
      ],
      "name": "UploadEvent",
      "type": "event"
    },
    {
      "constant": false,
      "inputs": [
        {
          "name": "dataid",
          "type": "uint256"
        },
        {
          "name": "hash",
          "type": "string"
        }
      ],
      "name": "upload",
      "outputs": [],
      "payable": false,
      "stateMutability": "nonpayable",
      "type": "function"
    },
    {
      "constant": true,
      "inputs": [
        {
          "name": "hashid",
          "type": "uint256"
        }
      ],
      "name": "getHash",
      "outputs": [
        {
          "name": "",
          "type": "string"
        }
      ],
      "payable": false,
      "stateMutability": "view",
      "type": "function"
    }
  ],
  "bytecode": "0x6080604052600060015534801561001557600080fd5b50336000806101000a81548173ffffffffffffffffffffffffffffffffffffffff021916908373ffffffffffffffffffffffffffffffffffffffff1602179055506103cc806100656000396000f30060806040526004361061004c576000357c0100000000000000000000000000000000000000000000000000000000900463ffffffff1680634d725e95146100515780636b2fafa9146100c4575b600080fd5b34801561005d57600080fd5b506100c260048036038101908080359060200190929190803590602001908201803590602001908080601f016020809104026020016040519081016040528093929190818152602001838380828437820191505050505050919291929050505061016a565b005b3480156100d057600080fd5b506100ef60048036038101908080359060200190929190505050610246565b6040518080602001828103825283818151815260200191508051906020019080838360005b8381101561012f578082015181840152602081019050610114565b50505050905090810190601f16801561015c5780820380516001836020036101000a031916815260200191505b509250505060405180910390f35b60003373ffffffffffffffffffffffffffffffffffffffff166000809054906101000a900473ffffffffffffffffffffffffffffffffffffffff1673ffffffffffffffffffffffffffffffffffffffff161415156101c757600080fd5b60016000815480929190600101919050559050816002600083815260200190815260200160002090805190602001906102019291906102fb565b507fdffcf88ce8e9a235a64b09b9704f446685063e42d443674483dc21ac065c66f48382604051808381526020018281526020019250505060405180910390a1505050565b6060600260008381526020019081526020016000208054600181600116156101000203166002900480601f0160208091040260200160405190810160405280929190818152602001828054600181600116156101000203166002900480156102ef5780601f106102c4576101008083540402835291602001916102ef565b820191906000526020600020905b8154815290600101906020018083116102d257829003601f168201915b50505050509050919050565b828054600181600116156101000203166002900490600052602060002090601f016020900481019282601f1061033c57805160ff191683800117855561036a565b8280016001018555821561036a579182015b8281111561036957825182559160200191906001019061034e565b5b509050610377919061037b565b5090565b61039d91905b80821115610399576000816000905550600101610381565b5090565b905600a165627a7a72305820ed7cbd801074112c8fcd4c28a5b8fdca9af7c1afce0b046ff78c78165f6dace90029",
  "source": "pragma solidity ^0.4.23;\n\ncontract Permission {\n   \n      address owner;\n\n      constructor() public {\n         owner = msg.sender;\n      }\n\n      uint numHashs = 0;\n\n      mapping (uint => string) vendorsMappings;\n\n      event UploadEvent(uint dataid, uint hashid);\n\n      function upload(uint dataid, string hash) public {\n\n         require(owner == msg.sender);\n         uint hashid = numHashs++;\n         vendorsMappings[hashid] = hash;\n\n         emit UploadEvent(dataid, hashid);\n      }\n\n      //权限控制数据条\n      function getHash(uint hashid) constant public returns (string) {\n         return vendorsMappings[hashid];\n      }\n\n}\n",
  "sourcePath": "/data/www/ptt_business_api/contracts/Permission.sol",
  "compiler": {
    "name": "solc",
    "version": "0.4.24+commit.e67f0147.Emscripten.clang"
  },
  "schemaVersion": "2.0.0",
  "updatedAt": "2018-07-05T09:17:17.927Z"
}