{
  "contractName": "Pool",
  "abi": [
    {
      "inputs": [],
      "payable": false,
      "stateMutability": "nonpayable",
      "type": "constructor"
    },
    {
      "anonymous": false,
      "inputs": [
        {
          "indexed": false,
          "name": "dataid",
          "type": "uint256"
        },
        {
          "indexed": false,
          "name": "hashid",
          "type": "uint256"
        }
      ],
      "name": "UploadEvent",
      "type": "event"
    },
    {
      "constant": false,
      "inputs": [
        {
          "name": "dataid",
          "type": "uint256"
        },
        {
          "name": "hash",
          "type": "string"
        }
      ],
      "name": "upload",
      "outputs": [],
      "payable": false,
      "stateMutability": "nonpayable",
      "type": "function"
    },
    {
      "constant": true,
      "inputs": [
        {
          "name": "hashid",
          "type": "uint256"
        }
      ],
      "name": "getHash",
      "outputs": [
        {
          "name": "",
          "type": "string"
        }
      ],
      "payable": false,
      "stateMutability": "view",
      "type": "function"
    },
    {
      "constant": true,
      "inputs": [],
      "name": "getHashCount",
      "outputs": [
        {
          "name": "",
          "type": "uint256"
        }
      ],
      "payable": false,
      "stateMutability": "view",
      "type": "function"
    }
  ],
  "bytecode": "0x6080604052600060015534801561001557600080fd5b5033600260006101000a81548173ffffffffffffffffffffffffffffffffffffffff021916908373ffffffffffffffffffffffffffffffffffffffff16021790555061040b806100666000396000f300608060405260043610610057576000357c0100000000000000000000000000000000000000000000000000000000900463ffffffff1680634d725e951461005c5780636b2fafa9146100cf57806383b3847a14610175575b600080fd5b34801561006857600080fd5b506100cd60048036038101908080359060200190929190803590602001908201803590602001908080601f01602080910402602001604051908101604052809392919081815260200183838082843782019150505050505091929192905050506101a0565b005b3480156100db57600080fd5b506100fa6004803603810190808035906020019092919050505061027c565b6040518080602001828103825283818151815260200191508051906020019080838360005b8381101561013a57808201518184015260208101905061011f565b50505050905090810190601f1680156101675780820380516001836020036101000a031916815260200191505b509250505060405180910390f35b34801561018157600080fd5b5061018a610330565b6040518082815260200191505060405180910390f35b60003373ffffffffffffffffffffffffffffffffffffffff16600260009054906101000a900473ffffffffffffffffffffffffffffffffffffffff1673ffffffffffffffffffffffffffffffffffffffff161415156101fe57600080fd5b6001600081548092919060010191905055905081600080838152602001908152602001600020908051906020019061023792919061033a565b507fdffcf88ce8e9a235a64b09b9704f446685063e42d443674483dc21ac065c66f48382604051808381526020018281526020019250505060405180910390a1505050565b60606000808381526020019081526020016000208054600181600116156101000203166002900480601f0160208091040260200160405190810160405280929190818152602001828054600181600116156101000203166002900480156103245780601f106102f957610100808354040283529160200191610324565b820191906000526020600020905b81548152906001019060200180831161030757829003601f168201915b50505050509050919050565b6000600154905090565b828054600181600116156101000203166002900490600052602060002090601f016020900481019282601f1061037b57805160ff19168380011785556103a9565b828001600101855582156103a9579182015b828111156103a857825182559160200191906001019061038d565b5b5090506103b691906103ba565b5090565b6103dc91905b808211156103d85760008160009055506001016103c0565b5090565b905600a165627a7a7230582095f68d907b93268fffedcb536554a0050a7f660ae5de62199db8c09f22183ade0029",
  "source": "pragma solidity ^0.4.23;\n\ncontract Pool {\n    \n   \tmapping (uint => string) vendorsMappings;\n\n   \tevent UploadEvent(uint dataid, uint hashid);\n\n   \tuint numHashs = 0;\n\n      address owner;\n\n      constructor() public {\n         owner = msg.sender;\n      } \n\n   \tfunction upload(uint dataid, string hash) public {\n\n         require(owner == msg.sender);\n   \t\tuint hashid = numHashs++;\n   \t\tvendorsMappings[hashid] = hash;\n\n   \t\temit UploadEvent(dataid, hashid);\n   \t}\n    \n   \tfunction getHash(uint hashid) constant public returns (string) {\n   \t\treturn vendorsMappings[hashid];\n   \t}\n\n   \tfunction getHashCount() constant public returns (uint) {\n   \t\treturn numHashs;\t\n   \t}\n}\n\n\n",
  "sourcePath": "/data/www/ptt_business_api/contracts/Pool.sol",
  "compiler": {
    "name": "solc",
    "version": "0.4.24+commit.e67f0147.Emscripten.clang"
  },
  "schemaVersion": "2.0.0",
  "updatedAt": "2018-07-09T02:34:59.550Z"
}